S01C0000696D755F616E6F6D616C795F646574656374696F6E2E7333371F
S3150800000050C30020B5280008C1CA0008AD1D000865
S31508000010C1CA0008C1CA0008C1CA0008C1CA000886
S31508000020C1CA0008C1CA0008C1CA0008C1CA000876
S31508000030C1CA0008C1CA0008C1CA0008C1CA000866
S31508000040C1CA0008C1CA0008C1CA0008C1CA000856
S31508000050C1CA0008C1CA0008C1CA0008C1CA000846
S31508000060C1CA0008C1CA0008C1CA0008F91E0008AA
S31508000070DDC30008C1CA0008C1CA0008C1CA000811
S31508000080C1CA0008C1CA0008C1CA0008C1CA000816
S31508000090C1CA00085D310008C1CA0008C1CA000803
S315080000A0C1CA0008C13200089D320008C1CA00084A
S315080000B0C1CA0008C1CA0008C1CA0008C1CA0008E6
S315080000C0C1CA0008C1CA0008C1CA0008C1CA0008D6
S315080000D0C1CA0008C1CA0008C1CA0008C1CA0008C6
S315080000E0C1CA0008C1CA0008C1CA0008C1CA0008B6
S315080000F0C1CA0008C1CA0008C1CA0008C1CA0008A6
S31508000100C1CA0008C1CA0008C1CA0008C1CA000895
S31508000110C1CA0008C1CA0008C1CA0008C1CA000885
S31508000120C1CA0008C1CA0008C1CA0008C1CA000875
S31508000130C1CA0008C1CA0008C1CA0008C1CA000865
S31508000140C1CA0008C1CA0008C1CA0008DBCE000837
S31508000150C1CA0008C1CA0008C1CA0008C1CA000845
S31508000160C1CA0008C1CA0008C1CA0008C1CA000835
S31508000170013800D0FCE77047D0B51BA7D7E9006760
S315080001802DED028B04469FED1A8AD4ED007AF4EE23
S31508000190C87AF1EE10FA0EDA13A7D7E900679FEDD1
S315080001A0158AD4ED007AF4EEC87AF1EE10FA0ED478
S315080001B0BDEC028BD0BD17EE900A09F0F7FA32466D
S315080001C03B4609F093F909F049FB2060DDE717EE95
S315080001D0900A09F0EBFA32463B4609F089F909F02C
S315080001E03DFB2060DDE700BF182D4454FB21194074
S315080001F0DB0F4940DB0F49C02DE9F04FC76997B0BF
S315080002008346209E08910C92129355EC104B8DED67
S31508000210000B7FB9102009F039FD0246CBF81C0007
S3150800022020B9A74BEF21A74809F0F8FCC0E90177E8
S315080002300760C760DBF81C30196859B15A68012392
S31508000240584693404A608B600AF006FDDBF81C307E
S3150800025000221A602B1EB7BF23F000430023012299
S315080002600193A8BF3360019F974BB8BF3260BB4369
S3150800027019D142F20F73129A1360C7F3130323437B
S3150800028000F0DB85219B53B9904B21E0904B0393FB
S315080002900833219A1360039817B0BDE8F08F8B4B8B
S315080002A003930333F5E79DED007B0022002351EC11
S315080002B0170B8DED0A7B0BF08BFF804650B101239F
S315080002C0129A1360219B13B1824B219A1360824BB9
S315080002D00393E0E7C7F30A5614AA15A958469DEDF5
S315080002E00A0B0AF041FF0290002E76D00B9BA6F26D
S315080002F0FF36CDF84C80C3F3130343F07F53DDE993
S315080003000A0143F4401319460022744B09F0EEF82B
S3150800031065A3D3E900230BF0F3FC65A3D3E9002317
S3150800032009F0E6F804460D46304609F02DFA62A3B0
S31508000330D3E900230BF0E4FC02460B462046294687
S3150800034009F0D6F804460D460BF08AFF0022074648
S315080003500023204629460BF045FF40B1384609F0F0
S3150800036013FA22462B460BF033FF00B9013F162F2E
S3150800037052D85B4B03EBC703DDE90A01D3E9002337
S315080003800BF030FF002849D0013F00231193149B3E
S315080003909B1B5A1E4CBFC3F101030023079245BF9E
S315080003A00693002306930793002F39DB079B1097C4
S315080003B03B44079300230993089B092B66D8052B12
S315080003C0C5BF043B002401240893089B023B032B6A
S315080003D067D8DFE803F02D3A3859DDE914631E447F
S315080003E006F23243202BC9BFC3F14003C3F12003F1
S315080003F09F4006F21243D8BF04FA03F006F1FF360F
S31508000400C4BF24FA03F347EA030009F0ADF9012251
S31508000410A1F1F873139276E70123B7E71190B6E7CF
S31508000420069BDB1B06937B42099300231093C3E7C5
S3150800043000230D930C9B002B56DC012399461A4684
S3150800044004930C920CE00123F3E700230D930C9B15
S31508000450FB1803F1010904934B46012BB8BF01238E
S31508000460DBF81C000021042202F114059D423FD945
S31508000470416058460AF0B0FB039000283BD1194B5F
S31508000480024640F2AF11CEE60123DFE7012400233E
S315080004900D9408934FF0FF330022994604931223D4
S315080004A0CFE701230D93F5E761436F63A787D23F33
S315080004B0B3C8608B288AC63FFB799F501344D33F45
S315080004C00A090108BA0A01080000F07FB60A0108FD
S315080004D0AD0A0108E5FC0008E4FC00080000F83F46
S315080004E0B80B0108130B01080C9B99460493B7E750
S315080004F001315200B8E7DBF81C30B9F10E0F039A48
S315080005001A606FD8002C6DD0002F36DD07F00F0269
S31508000510A04BF8054FEA271403EBC20393ED007BC3
S315080005208DED0E7B17D59C4B04F00F044FF0030896
S31508000530D3E90823DDE90A010BF00CFDCDE900013A
S31508000540954D5CB9DDE90E23DDE900010BF002FDEE
S31508000550CDE900012BE04FF00208F1E7E10709D5E4
S3150800056008F10108DDE90E01D5E900230BF0C8FB07
S31508000570CDE90E0164100835E3E700F007817C42F7
S31508000580844B854D4FF0020804F00F02241103EB4B
S31508000590C203DDE90A01D3E900230BF0B1FB00230E
S315080005A0CDE90001002C40F0E580002BD0D1119B4D
S315080005B0DDE90045002B00F04C810022774B2046F0
S315080005C029460BF00FFE002800F04381B9F1000F11
S315080005D000F03F81049B002B00F3E480DDE90A3438
S315080005E0CDE90034159B002B02DB0E2F40F3428227
S315080005F00D9A002A40F06782099C0025DDF81880CC
S31508000600B8F1000F0DD0079B002B0ADD4345069A6B
S31508000610A8BF4346D21AA8EB03080692079AD31A2C
S315080006200793099B0BB30D9B002B00F0A682002CA9
S3150800063000F0A1822946224658460AF037FC029A5B
S315080006400146054658460AF087FB0299064658466B
S315080006500AF002FB099B1B1B099300F09182099A79
S31508000660314658460AF022FC0290012158460AF003
S315080006705DFB109B0446002B00F084821A46014657
S3150800068058460AF013FC089B0446012B03DC009B22
S31508000690002B00F07C820026236904EB830318698B
S315080006A00EF046F8C0F120001096079B184410F08B
S315080006B01F0000F09182C0F12003042B40F38182D1
S315080006C0C0F11C00069B034480440693079B034421
S315080006D00793069B002B05DD1A46029958460AF031
S315080006E03FFC0290079B002B05DD21461A4658461B
S315080006F00AF036FC0446119B002B00F07682214650
S3150800070002980EF064F8002880F26F8200230A220D
S31508000710029958460AF0C2FA0D9B7E1E0290002BDB
S3150800072000F05C82002329460A2258460AF0B6FAE7
S31508000730049B0546002B03DC089B022B00F35E8214
S31508000740B8F1000F05DD2946424658460AF008FC6E
S315080007500546109B002B00F0D082696858460AF0BF
S315080007603BFA0746002840F07F820D4B024640F2CE
S31508000770EF2158E5E20706D508F10108D5E9002377
S315080007800BF0BEFA0123641008350BE74FF0020898
S315080007900DE700BFB80B0108900B01080000F03FF9
S315080007A0130B010820460022AC4B29460BF0A8FA89
S315080007B07E1E08F10108049CCDE90001404608F0B8
S315080007C0E3FFDDE900230BF09BFAA54B002208F0B6
S315080007D08FFEA1F15073CDE90E010F93002C3BD18A
S315080007E00022A04BDDE9000108F080FE02460B4618
S315080007F0CDE90023DDE90E230BF012FD002840F0B9
S315080008005781DDE90E2101F10043DDE900010BF016
S31508000810E9FC00283FF4E2AE002425460C9BDDF8EF
S315080008200CA0DE434FF00008214658460AF014FA99
S31508000830002D00F0A980B8F1000F05D0A84503D017
S31508000840414658460AF008FA294658460AF004FA74
S315080008509AE03E464C46B1E7834B03EBC40353E9A3
S315080008600201039B1C440D9B002B4AD002460B46F3
S3150800087000207E490BF06EFBDDE90E2308F036FEFC
S31508000880DDF80CA0CDE90E01DDE900010BF0E8FC6E
S31508000890054608F079FF024630350B46DDE90001CA
S315080008A008F024FE0AF8015B02460B46CDE9000172
S315080008B0DDE90E010BF0B4FC002865D100206C4977
S315080008C0DDE9002308F012FE02460B46DDE90E01BB
S315080008D00BF0A6FC002840F00D81A24500F0EA8046
S315080008E000225E4BDDE90E010BF00AFA00225B4B93
S315080008F0CDE90E01DDE900010BF002FACDE90001B0
S31508000900C2E7DDE90E230BF0FBF9A046DDF80CA0E3
S31508000910CDE90E01DDE900010BF0A2FC054608F061
S3150800092033FF024630350B46DDE9000108F0DEFDEF
S315080009300AF8015B02460B46A245CDE900234FF0B3
S31508000940000223D1494BDDE90E0108F0D1FD02462C
S315080009500B46DDE900010BF063FC002840F0CA8075
S3150800096000204249DDE90E2308F0C0FD02460B4689
S31508000970DDE900010BF036FC70B1C24608F1FF381C
S315080009801AF8013C302BF8D0374655E0334B0BF0BC
S31508000990B7F9CDE90001BDE7DDE90A34CDE9003450
S315080009A0159B002BFFF628AE0E2F3FF725AE2E4BD4
S315080009B003EBC70393ED007B0C9B002B8DED047BAB
S315080009C002DAB9F1000F64D0DDF80CA0DDE90045C4
S315080009D0DDE90423204629460BF0BCFA0BF040FC5F
S315080009E0064608F0D1FEDDE904230BF089F9024634
S315080009F0204606F130040B46294608F077FD0AF82A
S31508000A00014B039C02460B46AAEB0404A14540F0A1
S31508000A10828008F06DFD04460D46DDE904230BF0DF
S31508000A20FFFB002865D120462946DDE904230BF0A3
S31508000A30CFFB08B1F3075CD4029958460AF00CF9C3
S31508000A40002301378AF80030129B1F60219B002B78
S31508000A503FF421ACC3F800A01DE400BF0000244009
S31508000A6000001C4000001440B80B01080000E03FDD
S31508000A700000F03FA24B03EBC70393ED007B0C9BF2
S31508000A80002B8DED047B9FDAB9F1000F9CDC7FF417
S31508000A90C3AE00229B4BDDE904010BF031F9DDE919
S31508000AA000230BF0B3FB044600287FF4B5AE3E46A0
S31508000AB02546B4E0DDE90A34CDE90034159B002B60
S31508000AC001DB0E2FD6DD089A012A36DC139A82B38B
S31508000AD003F23343099CDDF81880069A012158462B
S31508000AE01A440692079A1A4407920AF01FF905460D
S31508000AF086E53E4653469A4613F8012D392A06D10D
S31508000B00039A9A42F7D13022039901360A701A7865
S31508000B1001321A7038E700227B4B0BF0F1F80022FD
S31508000B20002304460D460BF053FB00283FF450AF54
S31508000B3082E7149BC3F13603CCE709F1FF34099B1E
S31508000B40A34208DBB9F1000FA3EB04040EDBDDF8C2
S31508000B5018804B46C1E7099B109AE31A0994DDF8F9
S31508000B60188000241A444B461092B6E7069BA3EB5E
S31508000B7009080023B1E7029E71E5099A029970E512
S31508000B80029672E5089B012B17DC009BABB9019B0B
S31508000B90C3F313039BB9019B23F00046360D3605B4
S31508000BA036B1069B012601330693079B013307934B
S31508000BB0109B002B7FF470AD1096012075E500267A
S31508000BC0F6E73FF486AD1C33069A1A449844069213
S31508000BD0079A1A4407927CE50346F4E7049B002B20
S31508000BE02BDC089B022B09DC27E0B9F1000F1DDC82
S31508000BF0089B022B1ADD3E46CDF81090049B002B6D
S31508000C007FF40CAE2146052258460AF047F80146FD
S31508000C10044602980DF0DBFD00287FF7FFADDDF8EE
S31508000C200CA0312301360AF8013BFBE50D9B3E4635
S31508000C30CDF81090002B7FF483AD039F21460298D0
S31508000C400DF0E9FC039B00F13009049A07F8019BB3
S31508000C50FB1A9A4240F3CB8000230A22029958468F
S31508000C600AF01CF80290E9E72A6905F10C010C3034
S31508000C70023292000DF0B3FC0122394658460AF0BA
S31508000C806FF9039BA846054603F1010ADDE903232C
S31508000C9013440793009B03F0010309930AF1FF33FA
S31508000CA02146029804930DF0B6FC4146069000F1E1
S31508000CB0300902980DF08BFD2A462146074658460C
S31508000CC00AF0BAF9C268014602B3584609F0C4FFE9
S31508000CD0002F3ADA0122029958460AF041F92146CC
S31508000CE002900DF074FD002803DC29D119F0010FDC
S31508000CF026D0B9F1390F1DD132E02846C1E700BF29
S31508000D00B80B010800001440000024400A9002981D
S31508000D100DF05DFD0A990C90584609F09DFF0C9A56
S31508000D205ABB089B53B9099B43B9B9F1390F17D078
S31508000D30002F05DD069B03F1310901E0002F2ADAB1
S31508000D40DDF810A00AF8019B6EE5089B3B4304D129
S31508000D50009B03F00103002BBCD0B9F1390F36D143
S31508000D60049F392307F8013BBA46013F1AF8013CAC
S31508000D70392B5AD001333B7056E5002F06DB089B0A
S31508000D803B4306D1009B03F0010313B9002AA1DCFB
S31508000D90D6E7002AE1DC079B57460AF8019C53452B
S31508000DA02ED000230A220299584609F077FFA84553
S31508000DB002904FF000034FF00A02414658460BD105
S31508000DC009F06CFF804605460AF1010A66E7DDF878
S31508000DD010A009F10109B5E709F060FF2946804628
S31508000DE000230A22584609F059FF0546ECE7049BFA
S31508000DF04FF00008002BCCBF1F460127039B1F445A
S31508000E000122029958460AF0ABF8214602900DF0E5
S31508000E10DEFC0028A8DC02D119F0010FA4D1BA46DD
S31508000E2017F8013D302BFAD0FEE4039BBB429BD159
S31508000E303123039A01361370F6E4219B002B7FF4C5
S31508000E4025AA014BFFF744BAAD0A010800000000C5
S31508000E502DE9F04F1E46D3B000238B460690199312
S31508000E600B9209F0F1FD03681B781693BBF80C305A
S31508000E701F0615D5DBF8103093B94021069808F0FF
S31508000E8037FFCBF80000CBF8100030B90C23069AD0
S31508000E9013604FF0FF330E9315E14023CBF814305F
S31508000EA000239FED917B0F9313930E938DED0C7B8F
S31508000EB00B9B1C4653F8042B0AB1252AF9D10B9B28
S31508000EC0A3420DD0E51A0B9A594606982B460DF003
S31508000ED0E0FC013000F0F2800E9B03EBA5030E93B5
S31508000EE02368002B00F0EA800022231D4FF0FF3410
S31508000EF015461592099253F8042B07920B93079BF4
S31508000F00392B72D81F2B40F24283079B203B192BA3
S31508000F1000F23D83DFE813F073003B033B037800E0
S31508000F203B033B033B033B033B033B037C0086003D
S31508000F303B03830088003B03A300A600A600A60087
S31508000F40A600A600A600A600A600A600332B00F25F
S31508000F501E83DFE813F0F0001C03F0001C031C03DB
S31508000F601C031C039A001C031C031C031C031C0300
S31508000F701C031C031C031C031C031C03D4021C03B4
S31508000F801C031C031C031C031C031C031C031C035B
S31508000F901C03A300CF00F000F000F0009D00CF0076
S31508000FA01C031C03A0001C03410258026702A00090
S31508000FB01C0376021C03C8021C031C0334004C4B9A
S31508000FC032460F93E80652F8043B089202D46906A3
S31508000FD048BF9BB2EA0706D52BB1302245F0020579
S31508000FE01A92079A1B92022215E2079B453B332B5E
S31508000FF0ACD9079B08962A93002315936BE0159B9B
S3150800100023B92023159301E045F001050B9B72E7F0
S3150800101056F8043B002B0993F8DA5B42099345F02E
S315080010200405F3E72B23EDE70B9B53F8042B2A2A39
S31508001030079211D156F8044B0B9344EAE474E5E79A
S3150800104001FB042453F8042B0792079A303A092A1D
S31508001050F6D944EAE47451E700240A21F5E745F095
S315080010608005D3E700230993079B0A21099A303B99
S3150800107001FB023309930B9B53F8042B0B93A2F144
S3150800108030030792092BEFD939E745F00805BDE784
S3150800109045F04005BAE745F01005B7E73346EE06D2
S315080010A053F8040B089312D40AF006FB441C0ED11D
S315080010B0BBF90C3043F04003ABF80C30BBF80C30EE
S315080010C059063FF5E6AE0E9853B0BDE8F08F0023FB
S315080010D02A902B931593984601241F461E460DF118
S315080010E0A80908E1AFF30080000000000000000036
S315080010F0D40C01083246E90652F8043B089202D499
S315080011006A0648BF1BB2002B80F238845B422D2149
S315080011100122671C159100F0F781294625F0800504
S31508001120002B40F0F181002C00F02982012A40F0C2
S31508001130EE8100F029BC07364FF0FF3226F0070390
S31508001140B3EC027B8DED0C7B08930C9B10930D9BE7
S3150800115023F000431193A34BDDE910010BF06AF865
S31508001160F0B94FF0FF329F4BDDE910010BF044F860
S31508001170B0B900220023DDE90C010BF033F808B101
S315080011802D231593984A994B079925F080054FF01A
S3150800119000080324472994BF914699464746D3E158
S315080011A0DDE90C23104619460BF044F838B10D9BBF
S315080011B08F4A002BBCBF2D2315938E4BE4E7631C87
S315080011C051D0079B23F02003472B02D1002C08BFE0
S315080011D0012428230DF1A80845F4807A19AF049351
S315080011E018AE079B524621460698019317ABCDF8D1
S315080011F00C80029700969DED0C0B0DF02FFC4045D8
S31508001200814632D1199B282B2FDD990006980A931F
S3150800121008F06EFD0A9B804600283FF449AF524607
S3150800122021460297CDE90303079B0698CDE900639B
S315080012309DED0C0B17AB0DF011FC8146079B189E14
S3150800124023F02003472B40F08C80F71C10DBB442B8
S3150800125080F29C80079B023B0793731E079A18939C
S315080012601C922B220EE00624B3E74FF00008E5E7B0
S31508001270079B023B0793731E1893079B1C93C6F1A3
S3150800128001032D22092B1D927ADD2AA90A260A4670
S315080012900439B3FBF6F406FB1430303042F8040C7C
S315080012A0184623466328F2DC3033A2F1080041F8D9
S315080012B0043C1DAB2AA988425DD30DF1B3039B1AE2
S315080012C00B3A23F003038A4288BF00231EAAD418C8
S315080012D01CABE41AA3101393199B012B03EBA4046C
S315080012E002DC15F0010601D001340026179B002BFD
S315080012F06FD155460027A7423B46159905F00202CD
S31508001300B8BF23460A9305F08403002940F04481B8
S315080013101293002A40F09581002B40F0CE81DDE93A
S315080013200932A3EB020ABAF1000F40F36081BAF161
S31508001330100F314A00F3B7814FEA8A032E4A5946FD
S3150800134006980DF0A6FA013000F08881159B002B4F
S3150800135040F09981129B002B00F049814FF0000A5A
S3150800136074E1079B662B1BD0731E079A002B1893F4
S315080013701C9284DB75E750F8044B43F8044F9AE750
S31508001380302220AC13441E921F93A1E7199B9E425C
S3150800139013DA002ED4BFC6F1020401241C440FE060
S315080013A005F00105002E45EA040503DD5DB10134AB
S315080013B034449BE74DB1023498E7EC0707D5741C13
S315080013C06723079392E7344690E701248EE734466D
S315080013D0F6E72D2315938CE7E80633680E9A0DD5A4
S315080013E01A600EE0FFFFEF7F940C0108A40C0108B9
S315080013F0B40C0108C40C0108A40D01086906EFD550
S315080014001A80043654E5324615F0100152F8043BAA
S31508001410089202D0002200217BE615F04002FAD09D
S315080014209BB2F7E73246782145F0020552F8043BAD
S31508001430079108923022CDE91A21AB4A0F9202226F
S31508001440E9E73346002715F0100653F8049B15976D
S3150800145008932FD1621C16D0224631464846A2462A
S315080014600DF0AFF808B1A0EB090ABAF1270F0FD9AA
S315080014700AF101010698890008F03AFC00283FF4B1
S3150800148017AE804607E048460DF0B6F88246ECE708
S315080014904FF000082AA8544600239A4504D100278D
S315080014A0814640F82A7026E719F8032040F82320D9
S315080014B00133F2E7631C11D02246394648460DF03F
S315080014C043FB804600283FF469AEA0EB09084FEAC3
S315080014D0A8084445A8BF4446B8465FE648460DF006
S315080014E05CF80446F8E73246EF0652F8043B0892E1
S315080014F001D501228FE76E0648BF9BB2F9E77B4B01
S315080015005EE52946012209E6012A00F03A82022A06
S315080015100DF5A47929D003F00702DB08494602F144
S31508001520300249F8042DF6D1EE0706D5302A04D044
S31508001530302349F8043CA1F1080952AB27464FF07D
S315080015400008A3EB09039C104646D4E60DF5A479DA
S315080015500A20B3FBF0F100FB1132303249F8042DB2
S315080015601A460B46092AF4D8E7E703F00F020F9943
S315080015701B0951F8222049F8042DF6D1DDE71AB9DE
S31508001580C80701D5302300E20DF5A479D5E7079BF6
S31508001590002B7FF42EAD91E59A461292002A66D06A
S315080015A00A9A03320A92002B7AD0042315AA5946BE
S315080015B006980DF06EF9013050D0129B002B45D1DC
S315080015C0BAF1800F13D1DDE90932A3EB020ABAF1A9
S315080015D0000F0CDDBAF1100F454A70DC4FEA8A039A
S315080015E0434A594606980DF054F9013036D03F1B48
S315080015F0002F0BDDDFF8F8A0102F6ADCBB003C4A91
S31508001600594606980DF045F9013027D0E90571D4F9
S31508001610A3004A46594606980DF03BF901301DD0FD
S315080016206A0700F18881B8F1000F40F0A2810E9B8D
S31508001630089EDDE909218A42ACBF9B185B180E9308
S3150800164036E40A9902310A9103B39A4608231AAA7C
S31508001650594606980DF01DF90130B1D1B8F1000FC1
S315080016603FF42CAD4146069809F06CFA26E50A9A2D
S3150800167001320A92002B98D1099BA3EB020ABAF110
S31508001680000F3FF754AE4FF0000A8EE7DDE9093147
S31508001690A3EB010ABAF1000F7FF760AE129246E695
S315080016A0DDE90932E9E74023594606980DF0F1F8D5
S315080016B00130D3D0AAF1100A39E69A4680E74023CA
S315080016C0594606980DF0E5F80130C7D0AAF1100A78
S315080016D080E740235246594606980DF0DAF801305D
S315080016E0BCD0103F88E700BFD40C0108180D0108CC
S315080016F0640D0108079B652B40F2DD80002200235C
S31508001700DDE90C010AF064FD58B30423A14A5946E1
S3150800171006980DF0BEF80130A0D0DDE91834A342D2
S3150800172002DBEB077FF57CAF042316AA5946069819
S315080017300DF0AFF8013091D0013C002C7FF770AF67
S31508001740954E102C02DCA300934A63E740233246E9
S31508001750594606980DF09DF801303FF47FAF103CCE
S31508001760EFE7189B002B36DC04238A4A594606986D
S315080017700DF08FF801303FF471AF05F00102DDE995
S315080017801836334313433FF44BAF042316AA59467E
S3150800179006980DF07EF801303FF460AF189C002CD7
S315080017A00CDA64427C4F102C0ADCA3007A4A5946AC
S315080017B006980DF06EF801303FF450AFB30028E7F5
S315080017C040233A46594606980DF063F801303FF42F
S315080017D045AF103CE7E7199C44F31D0AA300B24540
S315080017E00793A8BFB246BAF1000F21DCBAF1000F81
S315080017F0ACBFA6EB0A073746002F0CDDDFF898A129
S31508001800102F1FDCBB00644A594606980DF041F8B4
S3150800181001303FF423AF189BB6009C421DDD04231C
S3150800182016AA594606980DF034F8013017D115E76F
S315080018304FEA8A034A46594606980DF02AF80130B7
S31508001840D4D10BE740235246594606980DF021F8A5
S3150800185001303FF403AF103FD2E7EF07DFD4079B11
S31508001860189F9B1BE71B9B109F42A8BF1F46002F74
S3150800187009DDBB0009EB0602594606980DF009F882
S3150800188001303FF4EBAE189B002FA4EB0304A8BF6E
S31508001890E41B002C7FF7C4AE3F4E102C7FF753AFE6
S315080018A040233246594606980CF0F3FF01303FF4C0
S315080018B0D5AE103CF1E7199E04234A465946012E37
S315080018C0069801DCEC071AD50CF0E3FF01303FF46B
S315080018D0C5AE042316AA594606980CF0DAFF01305D
S315080018E03FF4BCAE00220023741EDDE90C010AF0A9
S315080018F06FFC68B9A30009F10402594606980CF072
S31508001900C8FF01303FF4AAAE139B1CAA9B0081E6D0
S31508001910012EF9DD204E102C02DCA3001E4AECE74E
S3150800192040233246594606980CF0B3FF01303FF47F
S3150800193095AE103CEFE7DDE909329C1A002C7FF7DB
S3150800194072AE164D102C09DCA300144A59460698A7
S315080019500CF09FFF01307FF466AE7FE640232A46EF
S31508001960594606980CF095FF01303FF477AE103CC7
S31508001970E8E74146069809F0E5F858E6621C7FF460
S31508001980C0AD092B3FF6E2AD30330DF5A279519380
S31508001990D3E500BF5C0D0108640D0108A40D01081C
S315080019A00348044B834202D0034B03B118477047E0
S315080019B058C6002058C6002000000000064B0749FC
S315080019C0C91A891048BF0131491003D0044B0BB11D
S315080019D001481847704700BF58C6002058C600205F
S315080019E00000000010B5064C237843B9FFF7D8FF6E
S315080019F0044B13B10448AFF300800123237010BDD4
S31508001A003CCD002000000000840E010808B5054BF7
S31508001A101BB105490548AFF30080BDE80840FFF74C
S31508001A20CDBF00BF0000000058C60020840E010884
S31508001A30A3F5803A704700BF174B002B08BF134B1E
S31508001A409D46FFF7F5FF00218B460F461348144ABB
S31508001A50121A0CF068FD0E4B002B00D098470D4B60
S31508001A60002B00D098470020002104000D000D48E7
S31508001A70002802D00C48AFF3008009F03FF8200098
S31508001A8029000AF06CFC08F0EFF800BF0000080017
S31508001A90000000000000000050C3002058C60020C7
S31508001AA06CCD00200000000000000000074B10B5B8
S31508001AB093E80700064C84E8070018460AF023FC5A
S31508001AC001281EBF0122034B1A7010BDE0C6002074
S31508001AD0ECC600203DCD002073B509221B212748FE
S31508001AE004F0D0FD09221B21254804F0CBFD09226C
S31508001AF01B21244804F0C6FD1B222348114604F086
S31508001B00C1FD0622214D224C1146284604F0BAFD95
S31508001B10204604F0EBFE082363811E4B1E4EE3604D
S31508001B201E4B3046236040F63223A3800A23A37156
S31508001B300BF09BFB41F61E63B38004231B22B38183
S31508001B406B79114600932B79204604F079FE2979A2
S31508001B5030466A7904F086FF11480AF0AFFB014661
S31508001B6048B1104808F0C8FD5E210F4802B0BDE82C
S31508001B7070400AF0B9BF02B070BD00BFCCC60020E5
S31508001B80C4C60020BCC60020B4C60020ACC60020CF
S31508001B9078C60020CDCC4C3E90C600209A99993E36
S31508001BA0AD1A000840EC00086DEC00082DE9F04F6E
S31508001BB02DED028BDFF8E4B187B09BF80030002BDF
S31508001BC000F0C780DFF8D881644AB8F80030D2ED53
S31508001BD0016A0133A8F80030614B92ED027AD3ED21
S31508001BE0017A76EEE76AD3ED027A92ED006A37EE6D
S31508001BF0677AD3ED007A36EE676ADFED5A7A86EEB3
S31508001C00270A86EEA76AC7EE276A574C0920B7EE59
S31508001C10001AFFEE000A554984ED016AC4ED026A0E
S31508001C2084ED000A0BF08EF90920B7EE001AFFEED4
S31508001C30000A94ED010A4E490BF084F9B7EE001A32
S31508001C40FFEE000A94ED020A4A4909200BF07AF9D8
S31508001C5049480BF0A9F9002344491A4646480BF0AF
S31508001C60AFF909230022424943480BF0A9F9122388
S31508001C700022404940480BF0A3F901233F4A3E4958
S31508001C803F4804F043FE01223C493E4804F01CFF4D
S31508001C900A22DFF810A1B8F80050DAED007AB5FB91
S31508001CA0F2F130EE270ADFF8009102FB1155D9F858
S31508001CB00030ADB201338AED000AC9F80030002DB4
S31508001CC044D107EE903AF8EE677A2D4880EE278AD7
S31508001CD004F052FE28480BF095F901462A4808F008
S31508001CE00BFD27480BF0A7FA0146284808F004FD23
S31508001CF0244804F00DFF0146254808F0FDFC18EEBF
S31508001D00100A07F053FD0646A0680F4607F04EFD79
S31508001D10B8F80080CDE90401606807F047FDCDE911
S31508001D200201206807F042FD3246CDE900013B4634
S31508001D304146184808F0E0FC3B463246164808F08B
S31508001D40DBFC0023C9F80050CAF8003000238BF8E2
S31508001D50003007B0BDEC028BBDE8F08FE0C600206E
S31508001D60ECC6002000007A45D4C60020CCC6002068
S31508001D70C4C60020BCC60020B4C60020ACC60020DD
S31508001D8078C6002090C6002076EC00088BEC000888
S31508001D909FEC0008B3EC0008E3EC00083DCD0020FA
S31508001DA038CD002074C6002070C6002008B5024849
S31508001DB008F0B4FCFEE700BFF2EC000810B5224CB0
S31508001DC002F060FA236F23F0070343F00203236748
S31508001DD00AF004FFD4F82031002023F0070343F06B
S31508001DE00103C4F82031D4F8283123F0070343F05F
S31508001DF00103C4F82831D4F8403123F0030343F033
S31508001E000203C4F84031D4F8603123F0030343F0E9
S31508001E100203C4F86031D4F8403223F0030343F0D8
S31508001E200203C4F84032D4F8003223F0070343F023
S31508001E300203C4F80032D4F8083223F0070343F04B
S31508001E400203C4F8083210BD0080005030B5234D97
S31508001E509DB008AC0FCD0FC495E80F0084E80F00BD
S31508001E602C22002111A80CF05EFB1D4B01241093B7
S31508001E70562312930523159306230E2200210DF1EE
S31508001E8012008DF8454017930CF04DFB4FF4702067
S31508001E90144B08AACDE902030B238DF810300C2346
S31508001EA08DF81130104B1148059320230693104BDB
S31508001EB002A9009310AB8DF81D4003F051FD0446AE
S31508001EC018B17C210B480AF00FFE00214FF4E130CF
S31508001ED00AF0DFFA20461DB030BD00BF34ED000819
S31508001EE00000015B3C00015B3ECD00205CC7002082
S31508001EF0F8C6002003ED000801480AF05CBF00BFE1
S31508001F005CC7002008B504480AF006FEBDE808408C
S31508001F1002480AF001BE00BF6CED000854ED000847
S31508001F20012208B5074B1A700022074B1A700422C3
S31508001F30064B1A701F22064B1A7003F005FD054B57
S31508001F40186008BD4CC600205ECD00204BC6002098
S31508001F504AC6002074C70020082808B504D00FDC3C
S31508001F60022809DC002809DD0123042209210220B0
S31508001F7003F000F9002008BD0428F5D0D82106E0B2
S31508001F802028F1D0402807D01028F7D1B9210448D5
S31508001F900AF0AAFD0E20EEE7012304220821E6E74F
S31508001FA084ED00088022014B1A64704700E0035054
S31508001FB070B514460D4640F080010A48FFF7F2FF57
S31508001FC00AF056FE074E2544AC4204D18022064B41
S31508001FD000201A6470BD002130460AF049FE04F854
S31508001FE0010BF1E700000A5000D0035038B50C4643
S31508001FF0084D00F07F012846FFF7D4FF0AF038FEA7
S31508002000214628460AF034FE8022034B00201A6433
S3150800201038BD00BF00000A5000D0035070B5264CEA
S315080020208EB0264601AD0FCE14340FC50FCC06ADC3
S315080020300FC594E80F0085E80F00204B0121039394
S3150800204006AB05934FF480735720ADF81C3001F0AA
S31508002050ADFC01213A2001F0A9FC0023042203214A
S31508002060022003F087F8022100230846012203F024
S3150800207081F8002304220121022003F07BF80123C2
S3150800208004220721002003F075F80D4801A902F083
S31508002090A9FE0C4B0C4A0020C3F8CC244FF00212C0
S315080020A0C3F8C424A2F58032C3F8C8241C22C3F896
S315080020B0B4240EB070BD00BF38EE0008A05A320036
S315080020C000000A5000C003500200030010B52DEDB1
S315080020D0028B9FED188AB7EE007AC8EE007A77EE83
S315080020E0C77A9FED157AF4EEC77AF1EE10FA82B048
S315080020F019DCF5EEC07AF1EE10FA17D4FCEEE77AA1
S31508002100CDED017A9DF8044019202146FFF76EFFB0
S31508002110631C00EE103AB8EEC00A88EE000A02B058
S31508002120BDEC028B10BDF0EE477AE7E7DFED037AE8
S31508002130E4E700BF00007A4400007F430000000087
S3150800214013B5044601211C200DF10702FFF730FFE5
S315080021509DF8073003F01803102B8DF8073012D0BE
S3150800216009D89BB1082B14D00B484FF4AA710AF072
S31508002170BBFC012005E0182BF6D14FF06853002070
S31508002180236002B010BD4FF06653F8E74FF0625374
S31508002190F5E74FF06453F2E7DEED000813B50446A1
S315080021A001211B200DF10702FFF702FF9DF80730FA
S315080021B003F01803102B8DF8073011D009D88BB10E
S315080021C0082B11D0094840F279110AF08DFC01203C
S315080021D004E0182BF6D1064B0020236002B010BD90
S315080021E0044BF9E7044BF7E7044BF5E7DEED000887
S315080021F000007A3D0000FA3C0000FA3B00007A3CF9
S3150800220001212DE9F043002285B0804608460AF0F0
S3150800221032FA9FED6D0AFFF759FF05200AF090F98B
S3150800222000200AF015FA6846FFF7B8FF322004F0D6
S3150800223073F840211A20FFF7D9FE44216A20FFF7D8
S31508002240D5FE78212320FFF7D1FE052004F064F897
S315080022500221722001AAFFF7ABFEBDF804305BBA73
S315080022609BB2B3F5FC7FF0D37822002123200AF035
S315080022702BF90221722001AAFFF79AFE4FF00009F6
S315080022800C23BDF804704C467FBABFB2B7FBF3F710
S315080022904D464E461FFA89F3BB4278D396FBF7F6AE
S315080022A007EE906A9DED007AF8EEE77A95FBF7F56A
S315080022B067EE877AC8ED007A07EE905AF8EEE77A65
S315080022C094FBF7F467EE877AC8ED017A07EE904A31
S315080022D0F8EEE77A67EE877A01AAC8ED027A022154
S315080022E01320FFF765FE9DF904309DF8058001AAC5
S315080022F00221152048EA0328FFF75AFE9DF9043003
S315080023009DF8057001AA0221172047EA0327FFF75F
S315080023104FFE002E9DF904209DF80530B8BF033600
S31508002320002DA8EBA606B8BF0335002C43EA022306
S31508002330B8BF0334C6F307211320A3EBA404A7EB05
S31508002340A505FFF753FEF1B21420FFF74FFEC5F3BC
S3150800235007211520FFF74AFEE9B21620FFF746FEC9
S31508002360C4F307211720FFF741FEE1B21820FFF753
S315080023703DFE402200216A200AF0A6F800221146F6
S3150800238010460AF078F9002005B0BDE8F08301AAE6
S315080023900C217420FFF70CFE9DF90A209DF80B30DE
S315080023A009F1010943EA02231E449DF90C209DF810
S315080023B00D3043EA02231D449DF90E209DF80F3087
S315080023C043EA02231C4465E700007A44B7EE007A24
S315080023D0C7EE007A9FED057AC0ED157AC7EE007A4A
S315080023E080ED140AC0ED167A704700BF35FA8E3CA8
S315080023F0F0B52DED048B0F4600F15C050446D0EDD3
S31508002400098A90ED0A9AD0ED0B9A85B028461646A9
S31508002410B0EE408A0AF0E4FA002F48D094ED097A23
S31508002420DFED386AB4EEE67AF1EE10FA3FDBDFED5F
S31508002430367AB4EEE77AF1EE10FA38D894ED0A7ADD
S31508002440B4EEE67AF1EE10FA31DBB4EEE77AF1EEA5
S3150800245010FA2CD8F5EEC09AF1EE10FAF1EE688A69
S31508002460B1EE490A04F1680725DB09F089F98DED13
S31508002470010AB0EE680A09F083F9B1EE400A284667
S315080024803A4601A98DED020A8DED038A0AF0E0FAB3
S3150800249028460AF098FA0EB900236366D4ED147A32
S315080024A0B6EE000A284680EE270A0AF0B1FA05B009
S315080024B0BDEC048BF0BD09F063F99FED149A39EE73
S315080024C0400A8DED010AB0EE680A09F059F938EEAE
S315080024D0098AB1EE400A01A88DED020A8DED038A3C
S315080024E00AF071FA3A46284601A90AF0B1FA2846CE
S315080024F00AF069FAD4ED187AF1EE677AC4ED187A1B
S31508002500C9E700BFDA1B7CBFDA1B7C3FDB0F4940FB
S3150800251070B5044600F052F80128054626D104F1A4
S315080025202406304600F0D6F83146204604F1440623
S315080025300AF0D2F9304600F0DBF8D4ED117AF1EE64
S31508002540677AC4ED117AD4ED127AF1EE677A3146DC
S315080025502046C4ED127A0AF0DBF929462046BDE882
S3150800256070409FED030A0022FFF742BF70BD00BF0F
S31508002570000000007FB502250E4E0F4835700AF0A0
S3150800258089F909F0B9FF044660B90DF103000AF0AC
S31508002590B3F8044630B9032301A83370FFF730FEB9
S315080025A0044610B109F084FF00252046357004B0B2
S315080025B070BD00BF5FCD002078C70020014B18789A
S315080025C0704700BF5FCD002070B501212DED028B4D
S315080025D00223B0EE408A1C4E82B0002208463370B1
S315080025E00AF049F8B0EE480AFFF770FD174D0820C3
S315080025F085ED000A09F0B4FF032009F0A1FF0020C9
S315080026000AF013F800200AF023F8322003F084FEBB
S315080026100F4C002101200AF047F801A80AF052F8E9
S3150800262095ED000A20460AF054F995ED000A204671
S31508002630FFF7CCFE20460AF087F90123337002B073
S31508002640BDEC028B70BD00BF5FCD0020F4C7002033
S3150800265078C700201A4AD36B6BB392ED0C6A9FEDCC
S31508002660197A07EE903A26EE076AF8EE677AC6EE0A
S31508002670276A92ED0D6AFDEEE66A26EE076A16EE01
S31508002680903AC6EE276AFDEEE66A038016EE903AA1
S31508002690D2ED0E6A66EE876A86EEA77ABDEEC77A2F
S315080026A0438017EE103A83800023136353639363C2
S315080026B00023D3637047038043808380704700BF3D
S315080026C078C7002000007A440148FFF721BF00BF01
S315080026D078C70020054A1278012A04D00022026031
S315080026E042608260704709F040BF00BF5FCD00209E
S315080026F0054A1278012A04D00022026042608260EC
S31508002700704709F062BF00BF5FCD002008B5094BCE
S315080027101B78012B01D0002008BD09F0DFFF064A0F
S315080027201368013313600028F5D0044A136801338F
S315080027301360F1E75FCD0020F0C70020ECC700204A
S315080027409FED060A00F10C03B0EC017AF1EC017A70
S31508002750984207EE270AF7D1704700BF000000002D
S315080027600122024BC3F8A020704700BF00D00350D7
S315080027700122024BC3F8A020704700BF00E00350B7
S3150800278070B5404D88B001AC0FCD0FC495E8070071
S3150800279084E80700012401213A2001F007F93A4E9E
S315080027A00121292001F002F9384B304601A903938B
S315080027B08DF8124002F0BCFE2346042203210220B3
S315080027C002F0D8FC022122460846002302F0D2FC79
S315080027D0234621460422022002F0CCFC04220021D2
S315080027E02346022002F0C6FC294D2A4B4FF44870B6
S315080027F0C5F834374FF00213C5F8303703F5803380
S31508002800C5F838371C23C5F8203703F0DBFE14203B
S31508002810FFF7AEFF03F0D6FE2320FFF7A1FF03F074
S31508002820D1FEB9213046FFF7A3FF0AF03BFAFFF7BE
S3150800283097FF002303211A46022002F09BFC00237F
S3150800284002211A46084602F095FC23462146002234
S31508002850022002F08FFC002223461146022002F0D5
S3150800286089FC304602F038FE00212920C5F83417C5
S31508002870C5F83017C5F83817C5F8201701F096F8C7
S3150800288008B070BD6CEE000800C0055000127A0052
S3150800289000C00350020001000348044A0449121A02
S315080028A092100AF00EB900BFA0110108A011010884
S315080028B06CCD002008B500F02FF8FFF7EDFF124B9E
S315080028C012498B4212D30020114B12498B4218D35E
S315080028D0FFF7B2F8186850F82240586840F82240C6
S315080028E0013298688242F5D30C33EAE70022F8E70A
S315080028F01C6844F8220001325C68A242F8D3083307
S31508002900E4E70022F8E700BF8C0E0108980E0108DC
S31508002910980E0108980E01084FF480414FF0FF30D9
S31508002920114B124A10B59A60D3F8882042F4700207
S31508002930C3F888200E4A91660E4901F500521066C2
S315080029400D4850660220C3F8D000BFF34F8FBFF37F
S315080029506F8F01244FF440330848C0F88041D36094
S3150800296004600B6110BD00BF00ED00E00000000828
S315080029700090005000800044F7FF370000E100E0B7
S31508002980014B1868704700BF54C30020014B1860FC
S31508002990704700BF54C30020084B1B6F03F00703A2
S315080029A0022B04D0032B05D0012B05D0FEE7044BE0
S315080029B018687047034BFBE70348704700800050D0
S315080029C054C300205CC30020002D310108B5FFF771
S315080029D0E3FF054B1B6FC3F303330133B0FBF3F07F
S315080029E0024B186008BD00BF0080005050C300208D
S315080029F00048704700B4C404014B1868704700BF0C
S31508002A005CC30020054B1860054B1B6F03F00703DA
S31508002A10032B01D1FFF7DABF704700BF5CC3002064
S31508002A200080005000487047002D31014FF0B44334
S31508002A309868C0F304400C280AD8DFE800F00B09B0
S31508002A4009090909072119091B1D1F000F487047A5
S31508002A50002070479B6803F04073B3F1807F11D064
S31508002A60B3F1007F10D00A4A002B08BF1046704702
S31508002A70084870470848704708487047084870472C
S31508002A80084870470848704708487047405DC600C0
S31508002A9000093D00C0EA210180BA8C010048E8011E
S31508002AA0005A62020024F40080841E0040420F008F
S31508002AB0014B1868704700BF58C300200346054AF3
S31508002AC00549106803448B428CBF4FF0FF301360F2
S31508002AD0704700BF60C300200000042008B501212C
S31508002AE03A2000F063FF012304220321002002F0AC
S31508002AF041FB00200AF0D5F80122354B3549C3F8C9
S31508002B0044244FF40022A3F550335A66324BD3F8C7
S31508002B10FC20D20146D4D1F8803023F0030343F0D9
S31508002B200203C1F880304FF4607000F067FF2A4B4B
S31508002B3000F5D520D3F8F02000F2FC4042F001025F
S31508002B40C3F8F020D3F8FC2042F08072C3F8FC20CA
S31508002B50224AA3F55D431A60214B0222B0FBF3F02B
S31508002B60204B01381861C3F8F0204FF48072C3F87F
S31508002B7004234FF060431C4A0020C3F8B02F1B4AB9
S31508002B80C3F8802ED3F8002E42F48072C3F8002EC4
S31508002B90FF2283F82020D3F8002E22F48072C3F88F
S31508002BA0002E08BDD3F8FC2022F08072C3F8FC2062
S31508002BB0D1F8802022F0030242F00202C1F88020F8
S31508002BC0D3F8FC2042F08072C3F8FC20ABE700BFC4
S31508002BD000D003500080005000ED00E0FF030040E5
S31508002BE0F8590D00000004E055CEACC509000100F7
S31508002BF04FF06043D3F8802E30B5D20715D501249F
S31508002C000B4D8440D5F8FC2042F08072C5F8FC20B4
S31508002C10D3F8002E2243C3F8002E53F82020002AAA
S31508002C20F0D003F82010002030BD1120FCE700BFCB
S31508002C3000ED00E0032838B504460D4605D8094BD3
S31508002C4033F81030CB40DB0704D440F2FE31064897
S31508002C5009F04AFF302301225C43044BAA401A516B
S31508002C6038BD00BFD4EE000888EE000840E00350E7
S31508002C70032838B504460D4605D8094B33F81030F5
S31508002C80CB40DB0704D440F22D41064809F02CFF5F
S31508002C90302301225C43044BAA401A5138BD00BFB9
S31508002CA0D4EE000888EE000840D0035038B5047802
S31508002CB04578032C05D8094B33F81430EB40DB076D
S31508002CC004D44FF48961064809F00EFF3023012227
S31508002CD05C43044BAA401A5138BD00BFD4EE000825
S31508002CE088EE000840F0035070B505780446032DB9
S31508002CF0467805D80C4B33F81530F340DB0704D477
S31508002D004FF48361094809F0EFFE1022302313FBC4
S31508002D100523074A9B58F34003F00100A3780BB933
S31508002D2080F0010070BD00BFD4EE000888EE0008F0
S31508002D3030C003502DE9F04F9A46564B85B01B78A4
S31508002D4006460F461546DDF83C909DF844B0DDF87A
S31508002D505080002B00F09780072A00F296800E9B81
S31508002D60002B00F09280B9F1000F00F08E80129BC4
S31508002D70B3F5006F00F38980012803D1109B002B5F
S31508002D8000F08380444B03EB05131B7B002B7ED09E
S31508002D90424C1022002168460BF0C5FB04EB451493
S31508002DA01022A7BB394620460BF0BDFB43F21003A1
S31508002DB06380BBF1000F03D1E37843F00303E370AC
S31508002DC0364A0E9B02EB451CCCE90193129B69011E
S31508002DD0581E9DF84C30C0F30A0003F003039B0607
S31508002DE043EA001E53582E48012E00EA03004EEA15
S31508002DF00003CDF800A0535017D0B8F1000F2ED11C
S31508002E009CF8023068F304138CF8023027E000219E
S31508002E1020460BF088FB4FF444736380BBF1000F28
S31508002E20CED1E37843F03003C9E713230CF1100E33
S31508002E30CCF80C309CE80F008EE80F006FF0030109
S31508002E40DCF81C20109B61F39F02012FCCF81C2094
S31508002E50CCF8143003D1CCF81890CCF804300027FD
S31508002E600D4A290102EB051342F80180159A2846F6
S31508002E705A60694622469F605E7302F04DFA3846EC
S31508002E8005B0BDE8F08F0748FAE70748F8E70748AE
S31508002E90F6E700BF60CD0020F8C80020F8C700207C
S31508002EA00F80FFF3028000F0018000F0078000F039
S31508002EB038B5124B05461B78DBB1E0B109F0AAFE1E
S31508002EC00F4A00231146147B54B92B6001251A01B9
S31508002ED001EB03131D738C5009F0A2FE204638BD82
S31508002EE00133082B02F11002EDD109F099FE0548CD
S31508002EF0F5E70548F3E70548F1E700BF60CD002090
S31508002F00F8C80020048000F0028000F0018000F07C
S31508002F1038B509F07FFE002305460B4A147B6CB9C9
S31508002F200133082B02F11002F8D102F06DF9074BB4
S31508002F3028461C7009F074FE204603E0284609F06E
S31508002F406FFE034838BD00BFF8C8002060CD0020DA
S31508002F50058000F00D4B10B51B78044693B1072881
S31508002F6012D809F057FE0A4B03EB04131A7B2AB151
S31508002F7000241C7309F054FE204610BD09F050FECB
S31508002F800448FAE70448F8E70448F6E760CD002065
S31508002F90F8C80020068000F0028000F0018000F0EA
S31508002FA0154B13B51868002301908DF8043009F005
S31508002FB031FE124B1C7824B109F032FE104802B0DB
S31508002FC010BD01221A7009F02BFE0E4B01A81C73C6
S31508002FD01C7783F82C4083F83C4083F84C4083F8F0
S31508002FE05C4083F86C4083F87C4008238DF80730F2
S31508002FF002F048F92046E2E7DCEE000860CD002042
S31508003000038000F0F8C800200A4A08B512785AB1B9
S3150800301007280BD8084A02EB00131B7B43B1002193
S3150800302002F010F9002008BD0448FCE70448FAE756
S315080030300448F8E760CD0020F8C80020028000F0B8
S31508003040018000F0078000F00A4A08B512785AB1E4
S3150800305007280BD8084A02EB00131B7B43B1012152
S3150800306002F0F0F8002008BD0448FCE70448FAE737
S315080030700448F8E760CD0020F8C80020028000F078
S31508003080018000F0078000F00A4A08B5127852B1AC
S3150800309007280AD8084A02EB00131B7B3BB102F04B
S315080030A0B9F9002008BD0548FCE70548FAE70548D0
S315080030B0F8E700BF60CD0020F8C80020028000F0C5
S315080030C0018000F0078000F00D4B1B7893B10728AC
S315080030D012D889B10B4B03EB00131B7B73B10A4B58
S315080030E01A6D01238340134214BF012300230020D5
S315080030F00B70704705487047054870470548704784
S3150800310060CD0020F8C8002000000450028000F0BE
S31508003110018000F0078000F00B4A10B512780C46C3
S3150800312062B107280CD859B1084A02EB00131B7B79
S3150800313043B102F08BF92070002010BD0448FCE76B
S315080031400448FAE70448F8E760CD0020F8C80020EC
S31508003150028000F0018000F0078000F0184B2DE98E
S31508003160F0411F6D5B6D1F4000D5FEE70126002567
S31508003170144CDFF85880374218D02368C8F85060D6
S31508003180A3B1A168284601316268A1609847637BAC
S31508003190012B0BD150B90C4B03EB45131A7B60F38B
S315080031A041021A731A7F60F341021A770135082D16
S315080031B04FEA460604F11004DDD1BDE8F08100BFF0
S315080031C000000450F8C80020F8C70020002004506A
S315080031D070B5044601250B4E04B970BD94FAA4F0E7
S315080031E0B0FA80F005FA00F306EB001224EA0304AD
S315080031F05368002BF0D0117B11B191689847EBE723
S315080032009847E9E778C9002008B5192001F0A0F920
S3150800321028B14FF00072074BC3F880211A601A20B4
S3150800322001F096F928B14FF08062024BC3F880216D
S315080032301A6008BD00E100E0F8B505460E461746D7
S3150800324009F0E8FC134B2C46D3F8242405F0FC01BE
S3150800325022FA05F3DB0712D500230133DBB2042B70
S3150800326004D1FF2409F0DCFC2046F8BDEC1804F074
S3150800327003040C4422FA04FC1CF0010FEDD1FF2CC8
S31508003280F0D00122044B03EB0413C3E901671A7358
S31508003290E8E700BF00C0035078C90020074BD3F801
S315080032A02404D3F8202403F50053104000F05530C9
S315080032B020F05020C3F82004FFF78ABF00C003504F
S315080032C0074BD3F82404D3F8202403F50053104001
S315080032D000F0AA3020F0A020C3F82004FFF778BF3A
S315080032E000C00350044BD3F88420D206FBD4D3F88D
S315080032F08400C0F3811070470040005008B5334B76
S3150800330098424FD027D8324B984245D017D8314BE0
S3150800331098423ED00AD838B12F4B984239D041F25C
S3150800332086312E4809F0E0FB002034E02C4B984209
S315080033302FD02C4B9842F2D12B4B586E2BE02B4BAF
S3150800334098422CD003F5371303F5D8639842E6D193
S31508003350254B986F1FE0264B98422FD00CD8254B4B
S31508003360984223D0244B984224D0244B9842D6D155
S315080033701D4BD3F884000EE0214B984222D003F56A
S31508003380740303F510539842C9D1174BD3F8980024
S3150800339001E0154B986D08BD134B186FFBE7124BF0
S315080033A0586FF8E7104BD3F88000F4E70E4BD3F8C4
S315080033B08800F0E70C4BD3F88C00ECE70A4BD3F8FF
S315080033C09000E8E7084BD3F89400E4E780BA8C014C
S315080033D0405DC60080841E0040420F00E0EE0008F3
S315080033E000093D00C0CF6A000080E00F0024F40009
S315080033F0007E560380D54302006CDC020048E801D3
S315080034000090D00338B5124B0546D3F880300C46E9
S3150800341003F00303022B0BD0032B0DD0012B0FD186
S31508003420FFF7BAFA0E2305B1286004B1236038BD48
S31508003430FFF7FCFA0723F6E7FFF7A2FA0623F2E7F7
S31508003440044841F2DF1109F04FFB00231846EAE76A
S3150800345000800050E0EE000838B51A4B0546D3F850
S3150800346020010C4600F00700062821D8DFE800F006
S3150800347028040C1410181C00FFF782FA052305B15E
S31508003480286004B1236038BDFFF7B6FA0323F6E7D0
S31508003490FFF7CCFA0723F2E7FFF7C4FA0223EEE7B1
S315080034A0FFF76EFA0623EAE7FFF7A6FA0423E6E72C
S315080034B0054841F25C2109F017FB00231846DEE7B0
S315080034C00123DCE700800050E0EE000838B5194B10
S315080034D00546D3F828310C4603F00703013B052BB4
S315080034E020D8DFE803F003131B0F0B17FFF748FA82
S315080034F0052305B1286004B1236038BDFFF740FAFB
S315080035000623F6E7FFF792FA0723F2E7FFF774FABE
S315080035100323EEE7FFF770FA0423EAE7FFF782FAD8
S315080035200223E6E7044841F2640109F0DDFA0023C4
S315080035301846DEE700800050E0EE0008F7B50027E1
S31508003540144B0197D3F88041064604F00304022C75
S315080035500D4614D0032C0DD0012C14D1394601A8E0
S31508003560FFF77AFF10240EB1019B336005B12C607A
S3150800357003B0F0BDFFF75AFA07240190F3E7FFF707
S3150800358051FA0190EFE741F2B131034809F0ACFA7C
S315080035903C46E8E700800050E0EE0008002337B517
S315080035A00193194B0546D3F820320C4603F007035E
S315080035B0042B1FD8DFE803F025030F141900002198
S315080035C001A8FFF783FF12230DB1019A2A6004B1FF
S315080035D0236003B030BDFFF729FA07230190F3E70C
S315080035E009F07CFA0A230190EEE7FFF761FA09234E
S315080035F00190E9E741F22301044809F075FA00232E
S31508003600E2E70123E0E700BF00800050E0EE000893
S3150800361038B5104B0546D3F840310C4603F0030382
S31508003620022B0BD0032B0DD0012B0FD109F056FA24
S315080036300A2305B1286004B1236038BDFFF738FABC
S315080036400923F6E709F04DFA0C23F2E701230020D7
S31508003650EFE700BF00800050002337B50193184BF1
S315080036600546D3F860320C4603F00703013B032BEB
S315080036701FD8DFE803F0020E1914002101A8FFF78E
S31508003680EBFE10230DB1019A2A6004B1236003B042
S3150800369030BD002101A8FFF7BBFF1123F2E7FFF7B2
S315080036A0C5F907230190EDE7FFF7BCF9022301905E
S315080036B0E8E741F2C801034809F016FA0023E1E7F2
S315080036C000800050E0EE0008002337B50193184B40
S315080036D00546D3F894320C4603F00703013B032B47
S315080036E01FD8DFE803F0020E1914002101A8FFF71E
S315080036F0B3FE10230DB1019A2A6004B1236003B00A
S3150800370030BD002101A8FFF783FF1123F2E7FFF779
S315080037108DF907230190EDE7FFF784F9022301905D
S31508003720E8E741F2FB01034809F0DEF90023E1E787
S3150800373000800050E0EE000873B500240F4B01949A
S31508003740D3F87032064603F00303012B0D4607D063
S31508003750022B11D041F22611094809F0C5F904E0F7
S31508003760214601A8FFF754FF11240EB1019B3360CF
S3150800377005B12C6002B070BD1524F6E70080005034
S31508003780E0EE000838B5164B0546D3F800020C469D
S3150800379000F00700042819D8DFE800F020030B0F13
S315080037A0130009F09BF90A2305B1286004B12360C8
S315080037B038BDFFF77DF90923F6E709F092F90C23DE
S315080037C0F2E7FFF703F90F23800AEDE7054841F210
S315080037D06F4109F089F900231846E5E70123E3E775
S315080037E000800050E0EE000838B5164B0546D3F8C1
S315080037F008020C4600F00700042819D8DFE800F094
S3150800380020030B0F130009F069F90A2305B1286094
S3150800381004B1236038BDFFF74BF90923F6E709F031
S3150800382060F90C23F2E7FFF7D1F80F23800AEDE7DA
S31508003830054841F2A74109F057F900231846E5E77C
S315080038400123E3E700800050E0EE000838B5104B8E
S315080038500546D3F840320C4603F00303022B0BD07F
S31508003860032B0DD0012B0FD109F038F90A2305B126
S31508003870286004B1236038BDFFF71AF90923F6E773
S3150800388009F02FF90C23F2E701230020EFE700BF28
S315080038900080005038B5104B0546D3F860310C4609
S315080038A003F00303022B0BD0032B0DD0012B0FD1F2
S315080038B009F014F90A2305B1286004B1236038BD5C
S315080038C0FFF7F6F80923F6E709F00BF90C23F2E7F8
S315080038D001230020EFE700BF00800050B0F5207FED
S315080038E010B52ED009D8B0F5007F24D003D868B11A
S315080038F0B0F5C07F0AD000241BE0B0F5607FFAD18E
S31508003900124BD3F88040C4F3011412E00F4B1C6F1E
S31508003910230B13F00E0FC4F303340AD0072C08D078
S315080039200F2C06D0032C04D040F28521084809F054
S31508003930DBF8601C10BD054BD3F89040C4F3046453
S31508003940F7E7024B1C6FC4F38024F2E700800050AF
S31508003950E0EE00084FF4803238B5104B04469A66FC
S3150800396000200D46FFF7BAFF41F671320C4B604353
S31508003970DC69DA635A6804F4803422F440125DB9CB
S315080039800849884294BF00200120000502435A6076
S315080039900CB10022DA6338BD0349F2E70090005003
S315080039A000000350005A6202002D310138B5430960
S315080039B004460D460ED140F22F310D4809F094F811
S315080039C0002304F01F0485B103F580530122A240A9
S315080039D01A6038BD012B04D0022B04D040F23D31C9
S315080039E0EBE7044BEDE7044BEBE703F50053EDE794
S315080039F0E0EE00086480005068800050002130B571
S31508003A00802885B00446CDE9001100F09F8035D89E
S31508003A105E2846D85E2844D8DFE800F09E43434334
S31508003A204343434343434343434343434343434358
S31508003A304343434343434343434343439EAB9EABC2
S31508003A40BBBBBBBBBBABC550DB7450ABABAB4343DB
S31508003A50434343434343ABABAB7CE5AB43434343AD
S31508003A60434343434343434343BB9E9E9EE05050D8
S31508003A70EA8B61C04343434343939E00B0F5B06F5E
S31508003A8000F0918030D8B0F5207F72D00FD8B0F50D
S31508003A90C07F61D0B0F5007F61D0B0F5807F00F0BF
S31508003AA0878040F29441554809F01EF851E0B0F578
S31508003AB0607F69D00DD8B0F5407FF2D1FEF786FF5A
S31508003AC004464FF42070FFF709FFB4FBF0F46408CE
S31508003AD058E0B0F5806F5CD0B0F5A06FE1D1002159
S31508003AE06846FFF75BFD34E0B0F5106F76D016D860
S31508003AF0B0F5E06F77D00AD8B0F5C06F69D0B0F5E9
S31508003B00D06FCED100216846FFF73CFE21E0B0F524
S31508003B10F06FC6D100216846FFF7BCFE19E0B0F584
S31508003B20406F3BD00AD8B0F5206F61D0B0F5286F4A
S31508003B30B7D100216846FFF7FFFD0AE0B0F5486FE8
S31508003B40AFD100216846FFF7BFFD02E0FEF724FF6C
S31508003B500090009805B030BDFEF738FFF8E7FEF78D
S31508003B601BFF05462046FFF7B9FEB5FBF0F50095A5
S31508003B70EFE7FEF72BFF04464FF42070FFF7AEFE83
S31508003B80B4FBF0F40094E4E701A8FFF73BFC019DC1
S31508003B90E8E700216846FFF75FFCDAE70021684698
S31508003BA0FFF794FCD5E700216846FFF7C7FCD0E786
S31508003BB04FF0E02302911B695B0705D5FEF706FF68
S31508003BC00290029B0093C4E703A902A8FFF720FD11
S31508003BD0F7E700216846FFF71BFDBAE700216846AC
S31508003BE0FFF702FEB5E700216846FFF72FFEB0E7AC
S31508003BF000216846FFF730FDABE700BFE0EE00089E
S31508003C0008B58020FFF7FAFE034B98429EBF4FF493
S31508003C108032024B1A6708BD005A620200A00050A3
S31508003C201FB503460020B3F5807F019000F0C280DF
S31508003C3063D85D2B54D84C2B06D82D2B46D8232B6E
S31508003C402AD840F27951A4E04D3B102BF9D801A2AD
S31508003C5052F823F0AB3D0008433C0008433C0008FB
S31508003C60433C00085D3D0008433C0008433C00080F
S31508003C702F3E00087B3D0008213D0008253E000830
S31508003C80433C0008433C0008433C0008433C00080A
S31508003C90433C0008393E0008243B092BD1D801A231
S31508003CA052F823F0AB3D0008AB3D0008AB3D0008D9
S31508003CB0AB3D0008AB3D0008433C00089B3D0008AF
S31508003CC0433C00083D3D0008E13D00083D2B00F05F
S31508003CD082803E2BB5D1002001A9FFF7B7FD60E031
S31508003CE0802BAED1574B1B6F03F00703013B032B09
S31508003CF04DD8DFE803F04A47878FB3F5F06F6AD0EF
S31508003D0021D8B3F5B06F48D00FD8B3F5607F00F06F
S31508003D10858096D3B3F5806F47D0B3F5A06F90D161
S31508003D20002001A9FFF73AFC3BE0B3F5D06F57D066
S31508003D30B3F5E06FCFD0B3F5C06F82D1002001A9EB
S31508003D40FFF766FC2DE0B3F5206F70D00BD8B3F5FE
S31508003D50086F4AD0B3F5106F7FF473AF002001A93E
S31508003D60FFF742FD1DE0B3F5406F5BD0B3F5486F32
S31508003D7062D0B3F5286F7FF464AF002001A9FFF77E
S31508003D80DBFC0EE0052301930BE00223FBE740F280
S31508003D90C6412D4808F0A8FE03E0002001A9FFF758
S31508003DA0CDFB019805B05DF804FB002001A9FFF7DB
S31508003DB053FBF6E74FF0E02302901B695B0705D536
S31508003DC0FEF704FE0D230393039BDCE703A902A871
S31508003DD0FFF71EFCF8E7002001A9FFF75BFDE0E707
S31508003DE0002001A9FFF7CEFCDBE7164BD3F800311C
S31508003DF003F00303022B07D0032B09D0012B0BD1A9
S31508003E00FEF7FAFD0323BEE7FEF752FE0923BAE7DB
S31508003E1008F062FE0823B6E70123B4E701A9FFF715
S31508003E20F1FABEE7002001A9FFF750FBB9E7002029
S31508003E3001A9FFF711FCB4E7002001A9FFF744FC2C
S31508003E40AFE700BF00800050E0EE000838B5036811
S31508003E5004460F2B04D940F66D317C4808F044FE21
S31508003E6063680F2B04D94FF43761784808F03CFE95
S31508003E70A3680F2B04D940F67331744808F034FE52
S31508003E80237B0F2B04D940F67631704808F02CFEB8
S31508003E90637B0F2B04D940F679316C4808F024FE71
S31508003EA0A37B3F2B04D940F67C31684808F01CFEFA
S31508003EB0E37B3F2B04D940F67F31644808F014FEB3
S31508003EC02369032B04D940F68231604808F00CFEBA
S31508003ED06369032B04D940F685315C4808F004FE73
S31508003EE0E369032B04D940F68831584808F0FCFDED
S31508003EF08020FFF795FE032800F083804FF4801298
S31508003F00534B4FF0A0615A6645F60E02514BC3F863
S31508003F108020514A91624FF4803102F580529162B5
S31508003F209A6DD203FCD4996D11F08041FBD1D4E986
S31508003F300002120542EA0062E07B0243207B42EA65
S31508003F400042607B42EA0032A07B42EA80121A6194
S31508003F509869D4E90452120642EA856200F00040E4
S31508003F600243A07EE57E0243207E42EA0042607E4E
S31508003F7042EA00229A611A6AE06922F00F0242EACE
S31508003F808502364D00283DD11A6294F82420996A94
S31508003F9094F82000D200294042EA40120A4394F8D5
S31508003FA0211042EA011242F480329A622C49294AC7
S31508003FB0936D31EA0303FBD14FF080712648816285
S31508003FC01369A56823F4700343EA055313614FF098
S31508003FD00043836194F822300BB9224B996294F816
S31508003FE023303BB94FF480321E4B9A62194A936DBF
S31508003FF05B00FCD494F825301BB1164B1A4AC3F85B
S31508004000802038BD024342F0080202281A6208D10D
S3150800401019614FF40852996114484FF47F4108F02A
S31508004020BBFD0C4994F822308A6A94F820001B06D6
S315080040302A4043EA4013134394F8242043EAC20370
S3150800404094F8232043EA02438B62D3E7E0EE0008A4
S31508004050009000500040005A0050005AC7FFFEFE6C
S31508004060030001000060005AF1A7FFFF3440005A20
S31508004070014B93F9000070474DC60020436810B500
S31508004080072B044604D940F6B3512A4808F02CFDFC
S31508004090A368032B04D940F6B551264808F024FD39
S315080040A02378032B04D940F6B751224808F01CFDA3
S315080040B094F90130002B04DA40F6B9511D4808F08E
S315080040C013FD4FF400011C4A637851664FF4D15131
S315080040D0022002F5B832516218494F2B48604FF05A
S315080040E0010028BF4F2301F5805148601169C903B3
S315080040F0FCD4217843EA01235361D4E901131B0157
S3150800410043EA0123617B0B43217B43EA4103936026
S31508004110E37BA17B1B0143EA4113617C0B43217CB2
S3150800412043EA41035360A37C13B16FF4D15353623E
S3150800413010BD00BFE0EE00080090005000100250CD
S31508004140014B1880704700BF42C60020014B1880FB
S31508004150704700BF40C60020B0F5207F38B577D03D
S315080041600ED8B0F5007F61D003D890B3B0F5C07F04
S315080041702FD040F21231BDE838403D4808F0B4BCB3
S31508004180B0F5607FF5D13B4A4C1ED2F8FC5015F0CD
S3150800419080751EBFD2F8FC3023F08073C2F8FC305D
S315080041A0032C04D940F2F221314808F09DFC324A2A
S315080041B0D2F8803023F0300343EA0413C2F8803083
S315080041C035B12C4AD2F8FC3043F08073C2F8FC3083
S315080041D038BD4C1E012C0AD9102903D8274BCB40D1
S315080041E0DB0704D440F2C721214808F07DFC08F01B
S315080041F0E2FC08F0EEFC4FF48031214B1E4A1967A9
S31508004200136F23F4704343EA04331367FEF7DEFBA8
S315080042100446FFF767F8C0F10201204608F0D3FC10
S3150800422000F040F8BDE83840FFF7EABC4C1E1F2CEA
S3150800423004D940F206310E4808F056FC0E4AD2F868
S31508004240903023F0F85343EA0463C2F89030BFE78E
S315080042504C1E012C04D94FF44371054808F044FC60
S31508004260054A136F23F4806343EA84231367AFE791
S31508004270E0EE000800ED00E00080005010010100AB
S315080042800090005008B50121022000F08DF908F0D1
S3150800429092FC08F09EFC4FF48032014B1A6708BD69
S315080042A00090005008B54FF4C070FFF7A7FBBDE8B3
S315080042B008400449884294BF012102214FF4207026
S315080042C0FFF74ABF80F0FA024FF4C02201212DE918
S315080042D0F0470446944B5A66944A03F598335F6848
S315080042E051605D6815F00205FBD12268904B9A4231
S315080042F004D84FF426618F4808F0F6FB22688E4BE7
S315080043009A4204D940F661218A4808F0EDFBA38851
S31508004310B3F5967F04D840F66421864808F0E4FB96
S31508004320A388B3F5805F04D340F66521814808F079
S31508004330DBFBE388B3F5805F04D340F666217D484E
S3150800434008F0D2FBFEF7CEFF012820680AD17B4B86
S31508004350984207D940F66B21764808F0C5FB00203D
S31508004360BDE8F087764A002311461668B04202D3A4
S315080043705668B04205D90133192B02F11002F4D15F
S31508004380002301EB0313D3E9029028B1FEF7B6FF29
S3150800439000F07F0049EA00098020FFF741FC052864
S315080043A040F0988008F007FC08F013FC4FF48032C0
S315080043B05D4B4FF4C0701A67FFF790FA012805465F
S315080043C040F0848002214FF4C070FFF7C5FE012635
S315080043D0DFF87881D8F80C3013F0060FFAD1D8F840
S315080043E008A0C8F80890D8F8083083EA090313F437
S315080043F0F81F71D1A288E38843EA0243514AD36081
S31508004400A368032B7BD1504AD2F8003123F003036B
S3150800441043F00103C2F80031637D227D9B0143EA24
S31508004420820322694FF000081343227B43EA4203C2
S31508004430444A93602068FEF7A9FA07223B4B1A61A3
S315080044400122A3F580535A60A3F580531F6917F01C
S315080044500707FBD08020FFF7E3FB05282ED126B1FE
S3150800446029464FF4C070FFF777FEFEF7AFFA2368C8
S315080044700546834204D240F6E6212E4808F034FB6E
S31508004480FEF77EFAA84204D240F6E721294808F04A
S315080044902BFB2468FEF774FA844204D040F6E82120
S315080044A0244808F021FBFEF71DFFC0F1020128464B
S315080044B008F089FBFFF7F6FEFFF7A2FBB8F1000F3D
S315080044C07FF44DAF7B1E5842584149E7022801D177
S315080044D0042178E700267BE740F6B221154808F064
S315080044E003FB17F00107C8F808A01AD18020FFF7C8
S315080044F097FB05287FF433AF4FF00108AFE7092B88
S3150800450007D1114AD2F8003123F0030343F002031E
S3150800451080E7082B80D10C4AD2F8003143F0030318
S3150800452078E74FF0010888E70090005000E0015056
S315080045309FBB0D00E0EE000800B4C404005A6202F6
S315080045402CEF000800C00150008000500000015008
S31508004550C3B24B2B10B5044604D94FF44D71074826
S3150800456008F0C2FA064B620953F8220004F01F0449
S31508004570E040C04300F0010010BD00BFBCF00008D9
S3150800458000E100E0024A536B0342FCD1704700BFCA
S3150800459000400950034A0179D36E23F030030B43D8
S315080045A0D366704700400050F8B50446244BD3F84C
S315080045B08420D006FBD4D3F88430C3F381139C42FD
S315080045C03CD0FEF7E9F9012C05460BD11D4B984264
S315080045D004D940F292711C4808F086FA012128464F
S315080045E008F0F1FA08F00FFB4FF00072174B074678
S315080045F05A66204608F017FB4FF48063104E621E79
S3150800460093403367736E9A0103D4D6F884309B06B9
S315080046100AD5384608F0FBFA022C0FD12846BDE821
S31508004620F840002108F0CFBAD6F884309906E9D5C3
S315080046304FF4F461044808F057FAE3E7F8BD00BF01
S3150800464000400050005A620208F10008006000505D
S3150800465010B50C4608B9FEF79FF9074B21461B789B
S315080046603BB1064B984204D80120BDE81040FFF73D
S315080046709BBF0220F9E700BF61CD0020005A620205
S315080046804FF0004238B5244B244C5A664AF6CD33CF
S31508004690656C014605F00105236428BB0120FFF778
S315080046A071FF6368DB0715D51D4B586008461D4B1F
S315080046B0226BD2070CD4984208D1072415B1174BA0
S315080046C0194A1A6408F0B0FA204638BD0130EFE7F7
S315080046D09842F2D00024F1E70132236B13F0080365
S315080046E005D08A42F8D1E8E700220E49F5E78A4262
S315080046F0E3D020210A4A91620121A2F58052516035
S315080047000649084A886A800603D49342D5D00133FD
S31508004710F8E79342DDE700BF0090005000400950DB
S315080047200060095040420F003254FFFF4FF000422C
S3150800473038B5164B01465A664AF6CD33144C154A17
S31508004740656C236443780B205B0043F00103D36355
S31508004750FFF718FF63688A7823F4F87343EA0213AD
S315080047606360CA784B7943EA0223A3600A798B7996
S3150800477043EA022323610878FFF782FFEB0744BF69
S31508004780054B236408F050FA012038BD009000500C
S3150800479000400950004000503254FFFF0F2870B502
S315080047A0044605D940F62D61124808F09DF90F24F4
S315080047B04FF00042104B11495D6E03F580535A665F
S315080047C04AF6CD334E6C80200B64FFF7DBFE0B6A8E
S315080047D023F00F0323430B62F30744BF084B0B6414
S315080047E0002DA2BF4FF00042064B5A6608F01CFA8D
S315080047F070BD00BF08F10008008000500040095055
S315080048003254FFFF00A0005010B508F012FA042336
S3150800481000F5805100F500520B6113610B611361BD
S315080048200B6113610B611361202341F202010361DD
S315080048300023C360836041614FF4A02183618365CF
S3150800484041620549C36103628362C36243630365C8
S31508004850D164036310BD00BFFF3F0D0338B5174B86
S31508004860044698420D4607D0154B984204D04FF49B
S31508004870B371144808F038F925B92046BDE8384020
S3150800488008F0D7B9012204F580535A6040F6FF7143
S31508004890204605F00F0208F0C8F9A263782108F04F
S315080048A0C4F905F001036A0748BF43F00203A26C86
S315080048B002F003029A42FAD138BD00BF0000015B3C
S315080048C000000A5053F10008F8B505460C4616468E
S315080048D022B94FF409716B4808F006F96A4B9D42F4
S315080048E002D19CB956240DE0684B9D4247D040F250
S315080048F02721644808F0F8F844B940F2763161484F
S3150800490008F0F2F82046FFF779F80446AB68D807AE
S3150800491045D5B44204D240F231215A4808F0E4F8A9
S31508004920B4FBF6F46F68013CFF2C07F0010704D9C5
S3150800493040F23921534808F0D7F824064FB3282106
S31508004940284608F072F9AB6C99071CD1AB6CDA07EC
S315080049501BD4AE6C16F0020619D140F2462149481E
S3150800496008F0C2F8284608F064F92B69314623F0A6
S315080049707F4323432B61BDE8F840FFF76FBF002C48
S31508004980C4D15724BEE70526ECE70926EAE706263A
S31508004990E8E72B6923F07F4323432B61F8BD6B6857
S315080049A0012B04D040F25921364808F09DF8AB6D2A
S315080049B0DB07AB6848BF760003F0E003402B42D024
S315080049C009D893B1202B1AD040F29B21BDE8F840B4
S315080049D02C4808F089B8602B42D0802BF4D106EB1E
S315080049E04603A34247D801230DE0B6EB141F04D9AA
S315080049F040F28121234808F077F8102303E0B6EB4C
S31508004A00D40F1AD8082373436401B4FBF3F4204F78
S31508004A10203CB7EBC40F4FEAC40604D240F2A621E5
S31508004A20184808F061F828463E40012108F0FDF8CC
S31508004A302E63BDE8F84008F0F8B840F28621114820
S31508004A4008F052F8DEE70623B4FBF3F3B34201D3CA
S31508004A500623D8E740F28B210A4808F045F8F7E71D
S31508004A60B6EB940F01D80423CDE74FF4247105481B
S31508004A7008F03AF8F7E740F29521024808F034F8CA
S31508004A80B1E700BF53F100080000015B00000A50BF
S31508004A90F8FF7F002DE9F0419846436804460E4624
S31508004AA017461BB140F6FF7108F0BFF82046FFF71E
S31508004AB0ABFEF189737B62690B43318A22F44C524F
S31508004AC00B4322F00F0213436361A168337E327BE6
S31508004AD021F0804121F0E2011A430A4371690A4331
S31508004AE0A260B2681AB9A26842F00042A260F069F0
S31508004AF0002874D0857A027A6D04A16845EA825541
S31508004B006C4A0A401543828802F4C042154342782B
S31508004B1045EA8205427B45EAC205827B45EA0215DB
S31508004B20827845EA8225A560D0E90421E5680A432A
S31508004B30614929400A43817942EA8122C17942EAD8
S31508004B404122E26002785D49012A14D1E26842F006
S31508004B500402E2608C4200F09180594A94420CBFEC
S31508004B6001224FF0FF32520102F1A04242F2944173
S31508004B7002F5703214E0032A7AD1E26842F00402A0
S31508004B80E2608C4278D04E4A94420CBF01224FF024
S31508004B90FF3241F29441520102F1A04202F570320D
S31508004BA002255550427A04F580518A621AB1E268A4
S31508004BB042F40062E260C27A5AB1E26842F4004204
S31508004BC0E2603E4A94425BD1027B3E4902F00F0204
S31508004BD04A67626AC17B22F003020A4362623FB1F6
S31508004BE097F8202004F58050002A53D0012202624B
S31508004BF0B8F1000F27D004F5805113B14FF40043E4
S31508004C008B652E4BB8F822009C4298F821304ED07E
S31508004C102B4A94420DD10122112B34BF01270227BA
S31508004C20294DB0F5006FAF5494BF01270227274DD1
S31508004C30AF54A26D034322F4F95222F01E02134325
S31508004C40A36501238B6505212046FFF707FEB26899
S31508004C501AB120467168FFF737FE20463178FFF70C
S31508004C60FDFDA36CDB4313F4405FFAD1BDE8F08188
S31508004C70023A012A85D96DE700228AE7002272E7FF
S31508004C800F4A944201BF027B0E4902F00F02C1F897
S31508004C9080209EE7E16997F8222097F8215021F0B5
S31508004CA009012A430A4342F00102C261A0E7002231
S31508004CB0B2E700BFE39BBDFFFFF9F0870000015B89
S31508004CC000000A500090035064CD002062CD0020F9
S31508004CD0134B70B5984205460C4606D0114B9842C0
S31508004CE003D07021104807F0FFFE1CB972210E4848
S31508004CF007F0FAFE237B802B03D176210A4807F0BA
S31508004D00F3FE637B032B03D97921074807F0ECFEF2
S31508004D10002321462846BDE870401A46FFF7BABE6A
S31508004D200000015B00000A5053F100082B4B70B5D8
S31508004D30984205460C4643D119B98C21284807F0F4
S31508004D40D3FE5620FEF76CFF0C2807D0A0F1090306
S31508004D50012B03D9A0F11103012B3AD8637B032B4E
S31508004D6003D9AA211E4807F0BFFE237B802B03D058
S31508004D70AC211B4807F0B8FE6369B3F1804F03D036
S31508004D80AE21174807F0B0FE238A23F400539BB2DE
S31508004D90B3F5805F03D0B021114807F0A5FEA368DC
S31508004DA0013BB3F5165F03D3B2210D4807F09CFE0D
S31508004DB0002321462846BDE870401A46FFF76ABE1A
S31508004DC08A21074807F090FE1CB98C21044807F091
S31508004DD08BFE9E21024807F087FEBFE70000015BB5
S31508004DE053F10008F8B57B4B044698420E4606D0A8
S31508004DF0794B984203D0DF21784807F075FE1EB933
S31508004E00E121764807F070FE727BB3687AB1744A7E
S31508004E10934203D9E321714807F066FE3369C3B1AB
S31508004E20DB7BB3B1E6216D4807F05EFE11E06D4A03
S31508004E30934203D9E921694807F056FE336943B11D
S31508004E401A7F32B1B168684A5B7F914278D9042BE0
S31508004E5078D86368356923B140F6FF71204607F0B4
S31508004E60E4FE2046FFF7D0FC2269737BB17B22F073
S31508004E7087020B43134343F080032361002D63D05D
S31508004E802369297F23F0F80343EAC1132978EA7BCB
S31508004E900B43297943EA4113697A43EA011343EA42
S31508004EA082132361E068D5E9053720F0F0403B43DB
S31508004EB020F470200343287B697B43EA802343EA76
S31508004EC0C133E360A368F07B23F00303034343F095
S31508004ED00103A3606B88A06803F4C0430343A3607F
S31508004EE0A368687943EA8023A360AB79EF79606A9F
S31508004EF01B013F0203F0700307F4E06720F47720F4
S31508004F0020F4EE603B430343287A000300F4E040B4
S31508004F100343687F000400F47020034363626369F7
S31508004F20307B23F00F03034363616B89A36181BB65
S31508004F30C2B1284B9C4236D0274B9C4244D011E044
S31508004F40042B86D8F0216EE7A368F27B23F00303CF
S31508004F50134343F00103A3606369327B23F00F0315
S31508004F6013436361D6E901122046FFF7ADFC05211C
S31508004F702046FFF773FC2821204607F056FE3378B3
S31508004F80A36307F052FEA36CDB4313F4405FFAD128
S31508004F90F8BD104B9C420CD1AB7B144903F00F03B0
S31508004FA04B67002ADED02B7C104A03F00F031367E9
S31508004FB0D8E7094B9C42D5D1AB7B0C4903F00F03CC
S31508004FC0C1F88030002ACDD02B7C084A03F00F03A5
S31508004FD0D367C7E70000015B00000A5053F10008D9
S31508004FE0002D3101809698003F4B4C0000900350ED
S31508004FF01F2970B504460D46164603D99121064861
S3150800500007F072FD2EB104F580540123AB402360EE
S3150800501070BD04F50054F8E7A1F10008032838B577
S3150800502004460D4605D8094B33F81030CB40DB074C
S3150800503004D440F22D41064807F056FD30230122DC
S315080050405C43044BAA401A5138BD00BF38F2000829
S3150800505088EE000840D00350032838B504460D46AC
S3150800506005D8094B33F81030CB40DB0704D440F29F
S31508005070FE31064807F038FD302301225C43044B15
S31508005080AA401A5138BD00BF38F2000888EE000859
S3150800509040E003502DE9F84F032807460E4614460C
S315080050A098469DF828A09DF82C9005D8274B33F8EC
S315080050B01030CB40DB0703D4BF21254807F014FD89
S315080050C086EA0403032B03D9C121214807F00CFD06
S315080050D0072C4FF0030506F0030625D84FEA840B84
S315080050E005FA0BF529461B4807FA0BF207F0CAFD25
S315080050F02946194806FA0BF207F0C4FD424621462E
S315080051001648FFF775FF524621461548FFF770FF08
S315080051100123144AA340C2F8203421464A46BDE872
S31508005120F84F1148FFF764BFA4F1080B4FEA8B0B41
S3150800513005FA0BF529460D4807FA0BF207F0A2FD0A
S3150800514029460B4806FA0BF2D6E700BF38F20008E4
S31508005150ECF1000800C4035008C4035010C40350FF
S3150800516014C4035000E0035024C4035004C403507D
S315080051700CC4035003282DE9F04104460D46174692
S31508005180984605D81D4B33F81030CB40DB0704D4BE
S315080051904FF4B0711A4807F0A7FC37B129462046E4
S315080051A0B8F1000F20D0FFF739FF0F21072D04EBC8
S315080051B0440688BFA5F108034FEA0616114895BFAD
S315080051C0AB009B0004360C3607FA03F299403044CC
S315080051D007F058FD7FB929462046B8F1000F06D0DA
S315080051E0BDE8F041FFF71ABFFFF736FFDDE7BDE878
S315080051F0F041FFF731BFBDE8F08100BF38F2000883
S31508005200ECF1000830C003504FF400120B4B10B5F8
S31508005210C3F88020BFF34F8FBFF36F8F0024FF22A0
S31508005220074B21465C6520209A625C60FEF7BEFB50
S315080052302146BDE810402120FEF7B8BB00E100E09A
S3150800524000000450072838B504460D4603DD7721CB
S31508005250084807F049FC1F2C03D99121064807F096
S3150800526043FC064A064B002D08BF13460122A240FE
S315080052701A6038BD40F20008A1F100084010045039
S315080052804020045010B5044618B991211F4807F06C
S315080052902BFC23781B0613F0604F03D092211B4882
S315080052A007F022FCE3780F2B03D99521174807F05E
S315080052B01BFC01212020FEF779FB01212120FEF7A6
S315080052C075FB0122124B5A60227812069A606178A1
S315080052D0A27842EA01429A61FF229A6200229A6300
S315080052E01A644FF000425A654FF0FF324FF400112E
S315080052F003F500531A65074AC2F88011E3781B01C3
S31508005300DBB282F81533116010BD00BF40F2000809
S315080053100000045000E100E02DE9F0410126C3B287
S31508005320072805460C46904606FA03F603DDDE21F5
S31508005330344807F0D9FB1CB9DF21324807F0D4FB03
S31508005340236823F47C1323F00F031BB1E2212D48B5
S3150800535007F0CAFBA37A1B0413F47C0F03D0E721DA
S31508005360284807F0C1FBE37A1B0513F07E6F03D0CC
S31508005370E921244807F0B8FB237B5B0513F0FE5FA1
S3150800538003D0EB211F4807F0AFFB1F4B1F4F1E65CD
S31508005390AB00226803F1A04303F588235A60302244
S315080053A002FB0575637B2B66E37AA27A1B0543EA43
S315080053B00243227B43EA4253EB6528F003032B673B
S315080053C007F028FC7B6D33437B65237A13B13B6C6E
S315080053D033433B64637A13B1BB6B3343BB632279B4
S315080053E0A37943EA0243084A93616179E37943EA78
S315080053F0014307498B61054B56639E64BDE8F0413E
S3150800540007F00EBC40F200080020045000000450CB
S315080054100010045010B50124C3B2072804FA03F497
S3150800542004DD40F27311074807F05EFB07F0F2FB54
S31508005430054B5A6D22EA04025A659C62BDE8104083
S3150800544007F0EEBB40F200080000045010B5012436
S31508005450C3B2072804FA03F404DD40F291110A489E
S3150800546007F042FB07F0D6FB084BDA6A224208D15E
S315080054705B6B9C430CBF0124002407F0D1FB20463C
S3150800548010BD0024F9E700BF40F2000800000450F0
S3150800549070B506460C46154622B940F28E210C48D0
S315080054A007F022FB24B94FF42070FEF7A7FA04464A
S315080054B06D00013CB4FBF5F4064B250213EA042300
S315080054C004D040F2B321024807F00EFBF56170BD27
S315080054D08CF20008070080FF124B10B5984204466C
S315080054E004D040F24241104807F0FEFA012104F5C3
S315080054F08053596040F6AA6341F2050263610023AE
